{"abi":[{"type":"constructor","inputs":[],"stateMutability":"nonpayable"},{"type":"function","name":"balances","inputs":[{"name":"","type":"address","internalType":"address"}],"outputs":[{"name":"","type":"uint256","internalType":"uint256"}],"stateMutability":"view"},{"type":"function","name":"deposit","inputs":[],"outputs":[],"stateMutability":"payable"},{"type":"function","name":"goals","inputs":[{"name":"","type":"address","internalType":"address"}],"outputs":[{"name":"","type":"uint256","internalType":"uint256"}],"stateMutability":"view"},{"type":"function","name":"owner","inputs":[],"outputs":[{"name":"","type":"address","internalType":"address"}],"stateMutability":"view"},{"type":"function","name":"penaltyPool","inputs":[],"outputs":[{"name":"","type":"uint256","internalType":"uint256"}],"stateMutability":"view"},{"type":"function","name":"setGoal","inputs":[{"name":"goalAmount1","type":"uint256","internalType":"uint256"}],"outputs":[],"stateMutability":"nonpayable"},{"type":"function","name":"setLockPeriod","inputs":[{"name":"_days1","type":"uint256","internalType":"uint256"}],"outputs":[],"stateMutability":"nonpayable"},{"type":"function","name":"totalDeposits","inputs":[],"outputs":[{"name":"","type":"uint256","internalType":"uint256"}],"stateMutability":"view"},{"type":"function","name":"unlockTime","inputs":[{"name":"","type":"address","internalType":"address"}],"outputs":[{"name":"","type":"uint256","internalType":"uint256"}],"stateMutability":"view"},{"type":"function","name":"withdraw","inputs":[{"name":"amount","type":"uint256","internalType":"uint256"}],"outputs":[],"stateMutability":"nonpayable"},{"type":"event","name":"Deposit","inputs":[{"name":"sender","type":"address","indexed":true,"internalType":"address"},{"name":"amount","type":"uint256","indexed":false,"internalType":"uint256"}],"anonymous":false},{"type":"event","name":"GoalSet","inputs":[{"name":"user","type":"address","indexed":true,"internalType":"address"},{"name":"goalAmount","type":"uint256","indexed":false,"internalType":"uint256"}],"anonymous":false},{"type":"event","name":"LockPeriodSet","inputs":[{"name":"user","type":"address","indexed":true,"internalType":"address"},{"name":"unlockTimestamp","type":"uint256","indexed":false,"internalType":"uint256"}],"anonymous":false},{"type":"event","name":"PenaltyCollected","inputs":[{"name":"user","type":"address","indexed":true,"internalType":"address"},{"name":"amount","type":"uint256","indexed":false,"internalType":"uint256"}],"anonymous":false},{"type":"event","name":"Withdrawal","inputs":[{"name":"sender","type":"address","indexed":true,"internalType":"address"},{"name":"amount","type":"uint256","indexed":false,"internalType":"uint256"}],"anonymous":false},{"type":"error","name":"GoalNotSet","inputs":[]},{"type":"error","name":"InsufficientBalance","inputs":[]},{"type":"error","name":"InvalidAmount","inputs":[]},{"type":"error","name":"LockPeriodNotSet","inputs":[]},{"type":"error","name":"Unauthorized","inputs":[]}],"bytecode":{"object":"0x6080604052348015600e575f5ffd5b503360015f6101000a81548173ffffffffffffffffffffffffffffffffffffffff021916908373ffffffffffffffffffffffffffffffffffffffff160217905550610f9b8061005c5f395ff3fe608060405260043610610090575f3560e01c806376b467b71161005857806376b467b714610186578063779972da146101c25780637d882097146101ea5780638da5cb5b14610214578063d0e30db01461023e57610090565b80630a36614f146100945780631a02859f146100be57806327e235e3146100fa5780632e1a7d4d146101365780634b29c4481461015e575b5f5ffd5b34801561009f575f5ffd5b506100a8610248565b6040516100b59190610984565b60405180910390f35b3480156100c9575f5ffd5b506100e460048036038101906100df91906109fb565b61024e565b6040516100f19190610984565b60405180910390f35b348015610105575f5ffd5b50610120600480360381019061011b91906109fb565b610263565b60405161012d9190610984565b60405180910390f35b348015610141575f5ffd5b5061015c60048036038101906101579190610a50565b610278565b005b348015610169575f5ffd5b50610184600480360381019061017f9190610a50565b61070a565b005b348015610191575f5ffd5b506101ac60048036038101906101a791906109fb565b610791565b6040516101b99190610984565b60405180910390f35b3480156101cd575f5ffd5b506101e860048036038101906101e39190610a50565b6107a6565b005b3480156101f5575f5ffd5b506101fe610846565b60405161020b9190610984565b60405180910390f35b34801561021f575f5ffd5b5061022861084b565b6040516102359190610a8a565b60405180910390f35b610246610870565b005b60025481565b6004602052805f5260405f205f915090505481565b6003602052805f5260405f205f915090505481565b5f81116102ba576040517f08c379a00000000000000000000000000000000000000000000000000000000081526004016102b190610afd565b60405180910390fd5b8060035f3373ffffffffffffffffffffffffffffffffffffffff1673ffffffffffffffffffffffffffffffffffffffff1681526020019081526020015f2054101561033a576040517f08c379a000000000000000000000000000000000000000000000000000000000815260040161033190610b65565b60405180910390fd5b5f60045f3373ffffffffffffffffffffffffffffffffffffffff1673ffffffffffffffffffffffffffffffffffffffff1681526020019081526020015f2054116103b9576040517f08c379a00000000000000000000000000000000000000000000000000000000081526004016103b090610bcd565b60405180910390fd5b5f60055f3373ffffffffffffffffffffffffffffffffffffffff1673ffffffffffffffffffffffffffffffffffffffff1681526020019081526020015f205411610438576040517f08c379a000000000000000000000000000000000000000000000000000000000815260040161042f90610c35565b60405180910390fd5b5f60055f3373ffffffffffffffffffffffffffffffffffffffff1673ffffffffffffffffffffffffffffffffffffffff1681526020019081526020015f205442101590505f60045f3373ffffffffffffffffffffffffffffffffffffffff1673ffffffffffffffffffffffffffffffffffffffff1681526020019081526020015f205460035f3373ffffffffffffffffffffffffffffffffffffffff1673ffffffffffffffffffffffffffffffffffffffff1681526020019081526020015f2054101590505f83905082158061050c575081155b156105a3575f60646002866105219190610c80565b61052b9190610cee565b905080856105399190610d1e565b91508060025f82825461054c9190610d51565b925050819055503373ffffffffffffffffffffffffffffffffffffffff167f95e4e31634d901a278d070a9b0f4bb74bd6cf4183a8e59b553d61db70794224c826040516105999190610984565b60405180910390a2505b8360035f3373ffffffffffffffffffffffffffffffffffffffff1673ffffffffffffffffffffffffffffffffffffffff1681526020019081526020015f205f8282546105ef9190610d1e565b92505081905550835f5f8282546106069190610d1e565b925050819055505f3373ffffffffffffffffffffffffffffffffffffffff168260405161063290610db1565b5f6040518083038185875af1925050503d805f811461066c576040519150601f19603f3d011682016040523d82523d5f602084013e610671565b606091505b50509050806106b5576040517f08c379a00000000000000000000000000000000000000000000000000000000081526004016106ac90610e0f565b60405180910390fd5b3373ffffffffffffffffffffffffffffffffffffffff167f7fcf532c15f0a6db0bd6d0e038bea71d30d808c7d98cb3bf7268a95bf5081b65836040516106fb9190610984565b60405180910390a25050505050565b5f811161074c576040517f08c379a000000000000000000000000000000000000000000000000000000000815260040161074390610e77565b60405180910390fd5b8060045f3373ffffffffffffffffffffffffffffffffffffffff1673ffffffffffffffffffffffffffffffffffffffff1681526020019081526020015f208190555050565b6005602052805f5260405f205f915090505481565b5f81116107e8576040517f08c379a00000000000000000000000000000000000000000000000000000000081526004016107df90610edf565b60405180910390fd5b62015180816107f79190610c80565b426108029190610d51565b60055f3373ffffffffffffffffffffffffffffffffffffffff1673ffffffffffffffffffffffffffffffffffffffff1681526020019081526020015f208190555050565b5f5481565b60015f9054906101000a900473ffffffffffffffffffffffffffffffffffffffff1681565b5f34116108b2576040517f08c379a00000000000000000000000000000000000000000000000000000000081526004016108a990610f47565b60405180910390fd5b3460035f3373ffffffffffffffffffffffffffffffffffffffff1673ffffffffffffffffffffffffffffffffffffffff1681526020019081526020015f205f8282546108fe9190610d51565b92505081905550345f5f8282546109159190610d51565b925050819055503373ffffffffffffffffffffffffffffffffffffffff167fe1fffcc4923d04b559f4d29a8bfc6cda04eb5b0d3c460751c2402c5c5cc9109c346040516109629190610984565b60405180910390a2565b5f819050919050565b61097e8161096c565b82525050565b5f6020820190506109975f830184610975565b92915050565b5f5ffd5b5f73ffffffffffffffffffffffffffffffffffffffff82169050919050565b5f6109ca826109a1565b9050919050565b6109da816109c0565b81146109e4575f5ffd5b50565b5f813590506109f5816109d1565b92915050565b5f60208284031215610a1057610a0f61099d565b5b5f610a1d848285016109e7565b91505092915050565b610a2f8161096c565b8114610a39575f5ffd5b50565b5f81359050610a4a81610a26565b92915050565b5f60208284031215610a6557610a6461099d565b5b5f610a7284828501610a3c565b91505092915050565b610a84816109c0565b82525050565b5f602082019050610a9d5f830184610a7b565b92915050565b5f82825260208201905092915050565b7f416d6f756e74206d757374206265203e203000000000000000000000000000005f82015250565b5f610ae7601283610aa3565b9150610af282610ab3565b602082019050919050565b5f6020820190508181035f830152610b1481610adb565b9050919050565b7f496e73756666696369656e742062616c616e63650000000000000000000000005f82015250565b5f610b4f601483610aa3565b9150610b5a82610b1b565b602082019050919050565b5f6020820190508181035f830152610b7c81610b43565b9050919050565b7f536574206120676f616c206669727374000000000000000000000000000000005f82015250565b5f610bb7601083610aa3565b9150610bc282610b83565b602082019050919050565b5f6020820190508181035f830152610be481610bab565b9050919050565b7f536574206c6f636b20706572696f6420666972737400000000000000000000005f82015250565b5f610c1f601583610aa3565b9150610c2a82610beb565b602082019050919050565b5f6020820190508181035f830152610c4c81610c13565b9050919050565b7f4e487b71000000000000000000000000000000000000000000000000000000005f52601160045260245ffd5b5f610c8a8261096c565b9150610c958361096c565b9250828202610ca38161096c565b91508282048414831517610cba57610cb9610c53565b5b5092915050565b7f4e487b71000000000000000000000000000000000000000000000000000000005f52601260045260245ffd5b5f610cf88261096c565b9150610d038361096c565b925082610d1357610d12610cc1565b5b828204905092915050565b5f610d288261096c565b9150610d338361096c565b9250828203905081811115610d4b57610d4a610c53565b5b92915050565b5f610d5b8261096c565b9150610d668361096c565b9250828201905080821115610d7e57610d7d610c53565b5b92915050565b5f81905092915050565b50565b5f610d9c5f83610d84565b9150610da782610d8e565b5f82019050919050565b5f610dbb82610d91565b9150819050919050565b7f5472616e73666572206661696c656400000000000000000000000000000000005f82015250565b5f610df9600f83610aa3565b9150610e0482610dc5565b602082019050919050565b5f6020820190508181035f830152610e2681610ded565b9050919050565b7f476f616c206d757374206265203e2030000000000000000000000000000000005f82015250565b5f610e61601083610aa3565b9150610e6c82610e2d565b602082019050919050565b5f6020820190508181035f830152610e8e81610e55565b9050919050565b7f4c6f636b20706572696f64206d757374206265203e20302064617973000000005f82015250565b5f610ec9601c83610aa3565b9150610ed482610e95565b602082019050919050565b5f6020820190508181035f830152610ef681610ebd565b9050919050565b7f4465706f736974206d7573742062652067726561746572207468616e203000005f82015250565b5f610f31601e83610aa3565b9150610f3c82610efd565b602082019050919050565b5f6020820190508181035f830152610f5e81610f25565b905091905056fea2646970667358221220f5a80f97c0538b4b9ba86382929bc64aaba964e052fa82561a6fc865dd05bd1764736f6c634300081e0033","linkReferences":{}},"methodIdentifiers":{"balances(address)":"27e235e3","deposit()":"d0e30db0","goals(address)":"1a02859f","owner()":"8da5cb5b","penaltyPool()":"0a36614f","setGoal(uint256)":"4b29c448","setLockPeriod(uint256)":"779972da","totalDeposits()":"7d882097","unlockTime(address)":"76b467b7","withdraw(uint256)":"2e1a7d4d"},"id":21}